{
    "contractName": "WasteManagement",
    "abi": [
        {
            "inputs": [
                {
                    "internalType": "address",
                    "name": "",
                    "type": "address"
                }
            ],
            "name": "points",
            "outputs": [
                {
                    "internalType": "uint256",
                    "name": "",
                    "type": "uint256"
                }
            ],
            "stateMutability": "view",
            "type": "function"
        },
        {
            "inputs": [],
            "name": "pointsPerToken",
            "outputs": [
                {
                    "internalType": "uint256",
                    "name": "",
                    "type": "uint256"
                }
            ],
            "stateMutability": "view",
            "type": "function"
        },
        {
            "inputs": [],
            "name": "disposePlasticBottle",
            "outputs": [],
            "stateMutability": "nonpayable",
            "type": "function"
        },
        {
            "inputs": [],
            "name": "disposeOtherWaste",
            "outputs": [],
            "stateMutability": "nonpayable",
            "type": "function"
        },
        {
            "inputs": [],
            "name": "exchangePointsForTokens",
            "outputs": [],
            "stateMutability": "nonpayable",
            "type": "function"
        }
    ],
    "bytecode": "0x608060405234801561001057600080fd5b50610546806100206000396000f3fe608060405234801561001057600080fd5b50600436106100575760003560e01c80631e71a6101461005c578063358b8166146100665780634fcb6f3a146100965780637cc88f69146100b4578063fa0627ad146100be575b600080fd5b6100646100c8565b005b610080600480360381019061007b9190610336565b610120565b60405161008d919061037c565b60405180910390f35b61009e610138565b6040516100ab919061037c565b60405180910390f35b6100bc61013d565b005b6100c6610195565b005b60056000803373ffffffffffffffffffffffffffffffffffffffff1673ffffffffffffffffffffffffffffffffffffffff168152602001908152602001600020600082825461011791906103c6565b92505081905550565b60006020528060005260406000206000915090505481565b606481565b600a6000803373ffffffffffffffffffffffffffffffffffffffff1673ffffffffffffffffffffffffffffffffffffffff168152602001908152602001600020600082825461018c91906103c6565b92505081905550565b60646000803373ffffffffffffffffffffffffffffffffffffffff1673ffffffffffffffffffffffffffffffffffffffff1681526020019081526020016000205410156101e157600080fd5b60646000803373ffffffffffffffffffffffffffffffffffffffff1673ffffffffffffffffffffffffffffffffffffffff168152602001908152602001600020600082825461023091906103fa565b9250508190555060007310958a5c5e4d0609cb46b41681d81a5b2fefb65390508073ffffffffffffffffffffffffffffffffffffffff1663a9059cbb3360016040518363ffffffff1660e01b815260040161028c929190610482565b6020604051808303816000875af11580156102ab573d6000803e3d6000fd5b505050506040513d601f19601f820116820180604052508101906102cf91906104e3565b5050565b600080fd5b600073ffffffffffffffffffffffffffffffffffffffff82169050919050565b6000610303826102d8565b9050919050565b610313816102f8565b811461031e57600080fd5b50565b6000813590506103308161030a565b92915050565b60006020828403121561034c5761034b6102d3565b5b600061035a84828501610321565b91505092915050565b6000819050919050565b61037681610363565b82525050565b6000602082019050610391600083018461036d565b92915050565b7f4e487b7100000000000000000000000000000000000000000000000000000000600052601160045260246000fd5b60006103d182610363565b91506103dc83610363565b92508282019050808211156103f4576103f3610397565b5b92915050565b600061040582610363565b915061041083610363565b925082820390508181111561042857610427610397565b5b92915050565b610437816102f8565b82525050565b6000819050919050565b6000819050919050565b600061046c6104676104628461043d565b610447565b610363565b9050919050565b61047c81610451565b82525050565b6000604082019050610497600083018561042e565b6104a46020830184610473565b9392505050565b60008115159050919050565b6104c0816104ab565b81146104cb57600080fd5b50565b6000815190506104dd816104b7565b92915050565b6000602082840312156104f9576104f86102d3565b5b6000610507848285016104ce565b9150509291505056fea2646970667358221220bc6998e64e9fc601ded98f16097c1c351d0f4a917a21b6d07125ac7bc630839064736f6c63430008130033",
    "immutableReferences": {},
    "source": "// SPDX-License-Identifier: MIT\r\npragma solidity ^0.8.0;\r\n\r\ncontract CashCrowToken {\r\n    string public constant name = \"CashCrow Token\";\r\n    string public constant symbol = \"CCT\";\r\n    uint8 public constant decimals = 18;\r\n\r\n    mapping(address => uint256) balances;\r\n    mapping(address => mapping(address => uint256)) allowed;\r\n    uint256 public totalSupply;\r\n\r\n    constructor(uint256 initialSupply) {\r\n        totalSupply = initialSupply;\r\n        balances[msg.sender] = initialSupply;\r\n    }\r\n\r\n    function balanceOf(address _owner) public view returns (uint256 balance) {\r\n        return balances[_owner];\r\n    }\r\n\r\n    function transfer(address _to, uint256 _value) public returns (bool success) {\r\n        require(balances[msg.sender] >= _value && _value > 0);\r\n        balances[msg.sender] -= _value;\r\n        balances[_to] += _value;\r\n        emit Transfer(msg.sender, _to, _value);\r\n        return true;\r\n    }\r\n\r\n    function transferFrom(address _from, address _to, uint256 _value) public returns (bool success) {\r\n        require(balances[_from] >= _value && allowed[_from][msg.sender] >= _value && _value > 0);\r\n        balances[_from] -= _value;\r\n        allowed[_from][msg.sender] -= _value;\r\n        balances[_to] += _value;\r\n        emit Transfer(_from, _to, _value);\r\n        return true;\r\n    }\r\n\r\n    function approve(address _spender, uint256 _value) public returns (bool success) {\r\n        allowed[msg.sender][_spender] = _value;\r\n        emit Approval(msg.sender, _spender, _value);\r\n        return true;\r\n    }\r\n\r\n    function allowance(address _owner, address _spender) public view returns (uint256 remaining) {\r\n        return allowed[_owner][_spender];\r\n    }\r\n\r\n    event Transfer(address indexed _from, address indexed _to, uint256 _value);\r\n    event Approval(address indexed _owner, address indexed _spender, uint256 _value);\r\n}\r\n\r\ncontract WasteManagement {\r\n    mapping(address => uint256) public points;\r\n    uint256 public constant pointsPerToken = 100;\r\n\r\n    function disposePlasticBottle() public {\r\n        points[msg.sender] += 10;\r\n    }\r\n\r\n    function disposeOtherWaste() public {\r\n        points[msg.sender] += 5;\r\n    }\r\n\r\n    function exchangePointsForTokens() public {\r\n        require(points[msg.sender] >= pointsPerToken);\r\n        points[msg.sender] -= pointsPerToken;\r\n        CashCrowToken cct = CashCrowToken(0x10958A5c5E4D0609CB46b41681d81A5B2FEfB653);\r\n        cct.transfer(msg.sender, 1);\r\n    }\r\n}\r\n",
    "sourcePath": "E:\\sample blockchain\\CashCrow\\contracts\\CashCrowToken.sol",
    "compiler": {
        "name": "solc",
        "version": "0.8.19+commit.7dd6d404.Emscripten.clang"
    },
    "schemaVersion": "3.4.13",
    "updatedAt": "2023-05-04T18:20:32.264Z",
    "devdoc": {
        "kind": "dev",
        "methods": {},
        "version": 1
    },
    "userdoc": {
        "kind": "user",
        "methods": {},
        "version": 1
    }
}